{
  "contractName": "MiContrato",
  "abi": [
    {
      "inputs": [
        {
          "internalType": "address",
          "name": "",
          "type": "address"
        }
      ],
      "name": "files",
      "outputs": [
        {
          "internalType": "string",
          "name": "name",
          "type": "string"
        },
        {
          "internalType": "string",
          "name": "description",
          "type": "string"
        },
        {
          "internalType": "string",
          "name": "author",
          "type": "string"
        },
        {
          "internalType": "string",
          "name": "hash",
          "type": "string"
        }
      ],
      "stateMutability": "view",
      "type": "function",
      "constant": true
    },
    {
      "inputs": [
        {
          "internalType": "string",
          "name": "_name",
          "type": "string"
        },
        {
          "internalType": "string",
          "name": "_description",
          "type": "string"
        },
        {
          "internalType": "string",
          "name": "_author",
          "type": "string"
        },
        {
          "internalType": "string",
          "name": "_hash",
          "type": "string"
        }
      ],
      "name": "storeFile",
      "outputs": [],
      "stateMutability": "nonpayable",
      "type": "function"
    },
    {
      "inputs": [],
      "name": "getFile",
      "outputs": [
        {
          "internalType": "string",
          "name": "",
          "type": "string"
        },
        {
          "internalType": "string",
          "name": "",
          "type": "string"
        },
        {
          "internalType": "string",
          "name": "",
          "type": "string"
        },
        {
          "internalType": "string",
          "name": "",
          "type": "string"
        }
      ],
      "stateMutability": "view",
      "type": "function",
      "constant": true
    }
  ],
  "bytecode": "0x608060405234801561000f575f80fd5b50610cea8061001d5f395ff3fe608060405234801561000f575f80fd5b506004361061003f575f3560e01c80632fa816921461004357806339c637df14610064578063e8dc408e14610097575b5f80fd5b61004b6100b3565b60405161005b94939291906106ed565b60405180910390f35b61007e600480360381019061007991906107b7565b610364565b60405161008e94939291906106ed565b60405180910390f35b6100b160048036038101906100ac919061090e565b6105a7565b005b6060806060805f805f3373ffffffffffffffffffffffffffffffffffffffff1673ffffffffffffffffffffffffffffffffffffffff1681526020019081526020015f206040518060800160405290815f8201805461011090610a0f565b80601f016020809104026020016040519081016040528092919081815260200182805461013c90610a0f565b80156101875780601f1061015e57610100808354040283529160200191610187565b820191905f5260205f20905b81548152906001019060200180831161016a57829003601f168201915b505050505081526020016001820180546101a090610a0f565b80601f01602080910402602001604051908101604052809291908181526020018280546101cc90610a0f565b80156102175780601f106101ee57610100808354040283529160200191610217565b820191905f5260205f20905b8154815290600101906020018083116101fa57829003601f168201915b5050505050815260200160028201805461023090610a0f565b80601f016020809104026020016040519081016040528092919081815260200182805461025c90610a0f565b80156102a75780601f1061027e576101008083540402835291602001916102a7565b820191905f5260205f20905b81548152906001019060200180831161028a57829003601f168201915b505050505081526020016003820180546102c090610a0f565b80601f01602080910402602001604051908101604052809291908181526020018280546102ec90610a0f565b80156103375780601f1061030e57610100808354040283529160200191610337565b820191905f5260205f20905b81548152906001019060200180831161031a57829003601f168201915b5050505050815250509050805f015181602001518260400151836060015194509450945094505090919293565b5f602052805f5260405f205f91509050805f01805461038290610a0f565b80601f01602080910402602001604051908101604052809291908181526020018280546103ae90610a0f565b80156103f95780601f106103d0576101008083540402835291602001916103f9565b820191905f5260205f20905b8154815290600101906020018083116103dc57829003601f168201915b50505050509080600101805461040e90610a0f565b80601f016020809104026020016040519081016040528092919081815260200182805461043a90610a0f565b80156104855780601f1061045c57610100808354040283529160200191610485565b820191905f5260205f20905b81548152906001019060200180831161046857829003601f168201915b50505050509080600201805461049a90610a0f565b80601f01602080910402602001604051908101604052809291908181526020018280546104c690610a0f565b80156105115780601f106104e857610100808354040283529160200191610511565b820191905f5260205f20905b8154815290600101906020018083116104f457829003601f168201915b50505050509080600301805461052690610a0f565b80601f016020809104026020016040519081016040528092919081815260200182805461055290610a0f565b801561059d5780601f106105745761010080835404028352916020019161059d565b820191905f5260205f20905b81548152906001019060200180831161058057829003601f168201915b5050505050905084565b6040518060800160405280858152602001848152602001838152602001828152505f803373ffffffffffffffffffffffffffffffffffffffff1673ffffffffffffffffffffffffffffffffffffffff1681526020019081526020015f205f820151815f0190816106179190610be5565b50602082015181600101908161062d9190610be5565b5060408201518160020190816106439190610be5565b5060608201518160030190816106599190610be5565b5090505050505050565b5f81519050919050565b5f82825260208201905092915050565b5f5b8381101561069a57808201518184015260208101905061067f565b5f8484015250505050565b5f601f19601f8301169050919050565b5f6106bf82610663565b6106c9818561066d565b93506106d981856020860161067d565b6106e2816106a5565b840191505092915050565b5f6080820190508181035f83015261070581876106b5565b9050818103602083015261071981866106b5565b9050818103604083015261072d81856106b5565b9050818103606083015261074181846106b5565b905095945050505050565b5f604051905090565b5f80fd5b5f80fd5b5f73ffffffffffffffffffffffffffffffffffffffff82169050919050565b5f6107868261075d565b9050919050565b6107968161077c565b81146107a0575f80fd5b50565b5f813590506107b18161078d565b92915050565b5f602082840312156107cc576107cb610755565b5b5f6107d9848285016107a3565b91505092915050565b5f80fd5b5f80fd5b7f4e487b71000000000000000000000000000000000000000000000000000000005f52604160045260245ffd5b610820826106a5565b810181811067ffffffffffffffff8211171561083f5761083e6107ea565b5b80604052505050565b5f61085161074c565b905061085d8282610817565b919050565b5f67ffffffffffffffff82111561087c5761087b6107ea565b5b610885826106a5565b9050602081019050919050565b828183375f83830152505050565b5f6108b26108ad84610862565b610848565b9050828152602081018484840111156108ce576108cd6107e6565b5b6108d9848285610892565b509392505050565b5f82601f8301126108f5576108f46107e2565b5b81356109058482602086016108a0565b91505092915050565b5f805f806080858703121561092657610925610755565b5b5f85013567ffffffffffffffff81111561094357610942610759565b5b61094f878288016108e1565b945050602085013567ffffffffffffffff8111156109705761096f610759565b5b61097c878288016108e1565b935050604085013567ffffffffffffffff81111561099d5761099c610759565b5b6109a9878288016108e1565b925050606085013567ffffffffffffffff8111156109ca576109c9610759565b5b6109d6878288016108e1565b91505092959194509250565b7f4e487b71000000000000000000000000000000000000000000000000000000005f52602260045260245ffd5b5f6002820490506001821680610a2657607f821691505b602082108103610a3957610a386109e2565b5b50919050565b5f819050815f5260205f209050919050565b5f6020601f8301049050919050565b5f82821b905092915050565b5f60088302610a9b7fffffffffffffffffffffffffffffffffffffffffffffffffffffffffffffffff82610a60565b610aa58683610a60565b95508019841693508086168417925050509392505050565b5f819050919050565b5f819050919050565b5f610ae9610ae4610adf84610abd565b610ac6565b610abd565b9050919050565b5f819050919050565b610b0283610acf565b610b16610b0e82610af0565b848454610a6c565b825550505050565b5f90565b610b2a610b1e565b610b35818484610af9565b505050565b5b81811015610b5857610b4d5f82610b22565b600181019050610b3b565b5050565b601f821115610b9d57610b6e81610a3f565b610b7784610a51565b81016020851015610b86578190505b610b9a610b9285610a51565b830182610b3a565b50505b505050565b5f82821c905092915050565b5f610bbd5f1984600802610ba2565b1980831691505092915050565b5f610bd58383610bae565b9150826002028217905092915050565b610bee82610663565b67ffffffffffffffff811115610c0757610c066107ea565b5b610c118254610a0f565b610c1c828285610b5c565b5f60209050601f831160018114610c4d575f8415610c3b578287015190505b610c458582610bca565b865550610cac565b601f198416610c5b86610a3f565b5f5b82811015610c8257848901518255600182019150602085019450602081019050610c5d565b86831015610c9f5784890151610c9b601f891682610bae565b8355505b6001600288020188555050505b50505050505056fea2646970667358221220bbf7e6976021678be39a2e017ddba9710c35ebcaa2d1b3dcf4654f68031c29ee64736f6c63430008150033",
  "immutableReferences": {},
  "source": "// SPDX-License-Identifier: MIT\r\npragma solidity ^0.8.0;\r\n\r\ncontract MiContrato {\r\n    struct File {\r\n        string name;\r\n        string description;\r\n        string author;\r\n        string hash;\r\n    }\r\n\r\n    // Mapeo de archivos por direccin del propietario\r\n    mapping(address => File) public files;\r\n\r\n    function storeFile(string memory _name, string memory _description, string memory _author, string memory _hash) public {\r\n        files[msg.sender] = File(_name, _description, _author, _hash);\r\n    }\r\n\r\n    function getFile() public view returns (string memory, string memory, string memory, string memory) {\r\n        File memory file = files[msg.sender];\r\n        return (file.name, file.description, file.author, file.hash);\r\n    }\r\n}\r\n\r\n",
  "sourcePath": "C:\\Users\\jonathan\\Documents\\nuevoproye\\ciber\\contracts\\MiContrato.sol",
  "compiler": {
    "name": "solc",
    "version": "0.8.21+commit.d9974bed.Emscripten.clang"
  },
  "schemaVersion": "3.4.16",
  "updatedAt": "2024-12-02T13:47:42.878Z",
  "networkType": "ethereum",
  "devdoc": {
    "kind": "dev",
    "methods": {},
    "version": 1
  },
  "userdoc": {
    "kind": "user",
    "methods": {},
    "version": 1
  }
}